{
  "contractName": "ImageStorage",
  "abi": [
    {
      "constant": false,
      "inputs": [
        {
          "name": "_hash",
          "type": "string"
        }
      ],
      "name": "registerImage",
      "outputs": [],
      "payable": false,
      "stateMutability": "nonpayable",
      "type": "function"
    },
    {
      "constant": true,
      "inputs": [
        {
          "name": "_i",
          "type": "uint256"
        }
      ],
      "name": "getImage",
      "outputs": [
        {
          "name": "",
          "type": "string"
        }
      ],
      "payable": false,
      "stateMutability": "view",
      "type": "function"
    }
  ],
  "bytecode": "0x608060405234801561001057600080fd5b5061039b806100206000396000f3fe60806040526004361061004c576000357c0100000000000000000000000000000000000000000000000000000000900463ffffffff1680632607aafa14610051578063c53f29d814610105575b600080fd5b34801561005d57600080fd5b5061008a6004803603602081101561007457600080fd5b81019080803590602001909291905050506101cd565b6040518080602001828103825283818151815260200191508051906020019080838360005b838110156100ca5780820151818401526020810190506100af565b50505050905090810190601f1680156100f75780820380516001836020036101000a031916815260200191505b509250505060405180910390f35b34801561011157600080fd5b506101cb6004803603602081101561012857600080fd5b810190808035906020019064010000000081111561014557600080fd5b82018360208201111561015757600080fd5b8035906020019184600183028401116401000000008311171561017957600080fd5b91908080601f016020809104026020016040519081016040528093929190818152602001838380828437600081840152601f19601f820116905080830192505050505050509192919290505050610288565b005b60606000828154811015156101de57fe5b906000526020600020018054600181600116156101000203166002900480601f01602080910402602001604051908101604052809291908181526020018280546001816001161561010002031660029004801561027c5780601f106102515761010080835404028352916020019161027c565b820191906000526020600020905b81548152906001019060200180831161025f57829003601f168201915b50505050509050919050565b60008190806001815401808255809150509060018203906000526020600020016000909192909190915090805190602001906102c59291906102ca565b505050565b828054600181600116156101000203166002900490600052602060002090601f016020900481019282601f1061030b57805160ff1916838001178555610339565b82800160010185558215610339579182015b8281111561033857825182559160200191906001019061031d565b5b509050610346919061034a565b5090565b61036c91905b80821115610368576000816000905550600101610350565b5090565b9056fea165627a7a7230582004ab098893fa1cf080f3faf793e732fdc0f881ce1987d6dbb26f8b95dde157370029",
  "source": "pragma solidity >=0.5.0; \n\ncontract ImageStorage {\n    string[] ipfsImages;\n    \n    function registerImage(string memory _hash) public { \n        ipfsImages.push(_hash);\n    }\n    function getImage(uint _i) public view returns(string memory) { \n        return ipfsImages[_i];\n    } \n}",
  "sourcePath": "/Users/skyang/Documents/bworkspace/ipfs/contracts/ImageStorage.sol",
  "compiler": {
    "name": "solc",
    "version": "0.5.0+commit.1d4f565a.Emscripten.clang"
  },
  "schemaVersion": "3.0.9",
  "updatedAt": "2019-08-01T04:22:04.616Z",
  "devdoc": {
    "methods": {}
  },
  "userdoc": {
    "methods": {}
  }
}