{
  "contractName": "UnivLedger",
  "abi": [
    {
      "inputs": [],
      "payable": false,
      "stateMutability": "nonpayable",
      "type": "constructor"
    },
    {
      "constant": false,
      "inputs": [
        {
          "name": "_UnivName",
          "type": "string"
        },
        {
          "name": "_representativeNum",
          "type": "uint256"
        }
      ],
      "name": "registerUniv",
      "outputs": [],
      "payable": true,
      "stateMutability": "payable",
      "type": "function"
    },
    {
      "constant": false,
      "inputs": [
        {
          "name": "_univAdd",
          "type": "address"
        },
        {
          "name": "_studentAddress",
          "type": "address"
        }
      ],
      "name": "child_addAddress",
      "outputs": [],
      "payable": false,
      "stateMutability": "nonpayable",
      "type": "function"
    },
    {
      "constant": false,
      "inputs": [
        {
          "name": "_univAdd",
          "type": "address"
        },
        {
          "name": "_votingAgenda",
          "type": "string"
        }
      ],
      "name": "child_createVote",
      "outputs": [],
      "payable": false,
      "stateMutability": "nonpayable",
      "type": "function"
    },
    {
      "constant": false,
      "inputs": [
        {
          "name": "_univAdd",
          "type": "address"
        },
        {
          "name": "_agree",
          "type": "bool"
        }
      ],
      "name": "child_doVote",
      "outputs": [],
      "payable": false,
      "stateMutability": "nonpayable",
      "type": "function"
    },
    {
      "constant": false,
      "inputs": [
        {
          "name": "_univAdd",
          "type": "address"
        }
      ],
      "name": "child_updateVote",
      "outputs": [],
      "payable": false,
      "stateMutability": "nonpayable",
      "type": "function"
    },
    {
      "constant": false,
      "inputs": [
        {
          "name": "_univAdd",
          "type": "address"
        }
      ],
      "name": "child_deposit",
      "outputs": [],
      "payable": false,
      "stateMutability": "nonpayable",
      "type": "function"
    },
    {
      "constant": false,
      "inputs": [
        {
          "name": "_univAdd",
          "type": "address"
        },
        {
          "name": "_amount",
          "type": "uint256"
        }
      ],
      "name": "child_transfer",
      "outputs": [],
      "payable": false,
      "stateMutability": "nonpayable",
      "type": "function"
    },
    {
      "constant": false,
      "inputs": [
        {
          "name": "_hash",
          "type": "string"
        }
      ],
      "name": "registerImage",
      "outputs": [],
      "payable": false,
      "stateMutability": "nonpayable",
      "type": "function"
    },
    {
      "constant": true,
      "inputs": [
        {
          "name": "_i",
          "type": "uint256"
        }
      ],
      "name": "getImage",
      "outputs": [
        {
          "name": "",
          "type": "string"
        }
      ],
      "payable": false,
      "stateMutability": "view",
      "type": "function"
    },
    {
      "constant": true,
      "inputs": [],
      "name": "getIpfsCnt",
      "outputs": [
        {
          "name": "",
          "type": "uint256"
        }
      ],
      "payable": false,
      "stateMutability": "view",
      "type": "function"
    }
  ],
  "bytecode": "0x6080604052678ac7230489e80000600155600060065534801561002157600080fd5b50336000806101000a81548173ffffffffffffffffffffffffffffffffffffffff021916908373ffffffffffffffffffffffffffffffffffffffff16021790555061201a806100716000396000f3fe6080604052600436106100915760003560e01c806365badbfb1161005957806365badbfb146102fc5780639411dc4114610357578063b3877a26146103a8578063c53f29d814610405578063f4569c44146104cd57610091565b8063117fac31146100965780632607aafa146100e757806333011e751461019b578063517cba9c1461026057806357968c8e1461028b575b600080fd5b3480156100a257600080fd5b506100e5600480360360208110156100b957600080fd5b81019080803573ffffffffffffffffffffffffffffffffffffffff1690602001909291905050506105b5565b005b3480156100f357600080fd5b506101206004803603602081101561010a57600080fd5b8101908080359060200190929190505050610712565b6040518080602001828103825283818151815260200191508051906020019080838360005b83811015610160578082015181840152602081019050610145565b50505050905090810190601f16801561018d5780820380516001836020036101000a031916815260200191505b509250505060405180910390f35b61025e600480360360408110156101b157600080fd5b81019080803590602001906401000000008111156101ce57600080fd5b8201836020820111156101e057600080fd5b8035906020019184600183028401116401000000008311171561020257600080fd5b91908080601f016020809104026020016040519081016040528093929190818152602001838380828437600081840152601f19601f820116905080830192505050505050509192919290803590602001909291905050506107cb565b005b34801561026c57600080fd5b50610275610902565b6040518082815260200191505060405180910390f35b34801561029757600080fd5b506102fa600480360360408110156102ae57600080fd5b81019080803573ffffffffffffffffffffffffffffffffffffffff169060200190929190803573ffffffffffffffffffffffffffffffffffffffff16906020019092919050505061090c565b005b34801561030857600080fd5b506103556004803603604081101561031f57600080fd5b81019080803573ffffffffffffffffffffffffffffffffffffffff16906020019092919080359060200190929190505050610aa1565b005b34801561036357600080fd5b506103a66004803603602081101561037a57600080fd5b81019080803573ffffffffffffffffffffffffffffffffffffffff169060200190929190505050610c0a565b005b3480156103b457600080fd5b50610403600480360360408110156103cb57600080fd5b81019080803573ffffffffffffffffffffffffffffffffffffffff169060200190929190803515159060200190929190505050610d67565b005b34801561041157600080fd5b506104cb6004803603602081101561042857600080fd5b810190808035906020019064010000000081111561044557600080fd5b82018360208201111561045757600080fd5b8035906020019184600183028401116401000000008311171561047957600080fd5b91908080601f016020809104026020016040519081016040528093929190818152602001838380828437600081840152601f19601f820116905080830192505050505050509192919290505050610ed4565b005b3480156104d957600080fd5b506105b3600480360360408110156104f057600080fd5b81019080803573ffffffffffffffffffffffffffffffffffffffff1690602001909291908035906020019064010000000081111561052d57600080fd5b82018360208201111561053f57600080fd5b8035906020019184600183028401116401000000008311171561056157600080fd5b91908080601f016020809104026020016040519081016040528093929190818152602001838380828437600081840152601f19601f820116905080830192505050505050509192919290505050610f28565b005b80600073ffffffffffffffffffffffffffffffffffffffff16600460008373ffffffffffffffffffffffffffffffffffffffff1673ffffffffffffffffffffffffffffffffffffffff16815260200190815260200160002060009054906101000a900473ffffffffffffffffffffffffffffffffffffffff1673ffffffffffffffffffffffffffffffffffffffff16141561064f57600080fd5b600460008373ffffffffffffffffffffffffffffffffffffffff1673ffffffffffffffffffffffffffffffffffffffff16815260200190815260200160002060009054906101000a900473ffffffffffffffffffffffffffffffffffffffff1673ffffffffffffffffffffffffffffffffffffffff16630e82e52a6040518163ffffffff1660e01b8152600401600060405180830381600087803b1580156106f657600080fd5b505af115801561070a573d6000803e3d6000fd5b505050505050565b60606005828154811061072157fe5b906000526020600020018054600181600116156101000203166002900480601f0160208091040260200160405190810160405280929190818152602001828054600181600116156101000203166002900480156107bf5780601f10610794576101008083540402835291602001916107bf565b820191906000526020600020905b8154815290600101906020018083116107a257829003601f168201915b50505050509050919050565b6001543410156107da57600080fd5b600082826040516107ea906110f6565b8080602001838152602001828103825284818151815260200191508051906020019080838360005b8381101561082d578082015181840152602081019050610812565b50505050905090810190601f16801561085a5780820380516001836020036101000a031916815260200191505b509350505050604051809103906000f08015801561087c573d6000803e3d6000fd5b50905080600460008373ffffffffffffffffffffffffffffffffffffffff1673ffffffffffffffffffffffffffffffffffffffff16815260200190815260200160002060006101000a81548173ffffffffffffffffffffffffffffffffffffffff021916908373ffffffffffffffffffffffffffffffffffffffff160217905550505050565b6000600654905090565b81600073ffffffffffffffffffffffffffffffffffffffff16600460008373ffffffffffffffffffffffffffffffffffffffff1673ffffffffffffffffffffffffffffffffffffffff16815260200190815260200160002060009054906101000a900473ffffffffffffffffffffffffffffffffffffffff1673ffffffffffffffffffffffffffffffffffffffff1614156109a657600080fd5b600460008473ffffffffffffffffffffffffffffffffffffffff1673ffffffffffffffffffffffffffffffffffffffff16815260200190815260200160002060009054906101000a900473ffffffffffffffffffffffffffffffffffffffff1673ffffffffffffffffffffffffffffffffffffffff166338eada1c836040518263ffffffff1660e01b8152600401808273ffffffffffffffffffffffffffffffffffffffff1673ffffffffffffffffffffffffffffffffffffffff168152602001915050600060405180830381600087803b158015610a8457600080fd5b505af1158015610a98573d6000803e3d6000fd5b50505050505050565b81600073ffffffffffffffffffffffffffffffffffffffff16600460008373ffffffffffffffffffffffffffffffffffffffff1673ffffffffffffffffffffffffffffffffffffffff16815260200190815260200160002060009054906101000a900473ffffffffffffffffffffffffffffffffffffffff1673ffffffffffffffffffffffffffffffffffffffff161415610b3b57600080fd5b600460008473ffffffffffffffffffffffffffffffffffffffff1673ffffffffffffffffffffffffffffffffffffffff16815260200190815260200160002060009054906101000a900473ffffffffffffffffffffffffffffffffffffffff1673ffffffffffffffffffffffffffffffffffffffff166312514bba836040518263ffffffff1660e01b815260040180828152602001915050600060405180830381600087803b158015610bed57600080fd5b505af1158015610c01573d6000803e3d6000fd5b50505050505050565b80600073ffffffffffffffffffffffffffffffffffffffff16600460008373ffffffffffffffffffffffffffffffffffffffff1673ffffffffffffffffffffffffffffffffffffffff16815260200190815260200160002060009054906101000a900473ffffffffffffffffffffffffffffffffffffffff1673ffffffffffffffffffffffffffffffffffffffff161415610ca457600080fd5b600460008373ffffffffffffffffffffffffffffffffffffffff1673ffffffffffffffffffffffffffffffffffffffff16815260200190815260200160002060009054906101000a900473ffffffffffffffffffffffffffffffffffffffff1673ffffffffffffffffffffffffffffffffffffffff1663d0e30db06040518163ffffffff1660e01b8152600401600060405180830381600087803b158015610d4b57600080fd5b505af1158015610d5f573d6000803e3d6000fd5b505050505050565b81600073ffffffffffffffffffffffffffffffffffffffff16600460008373ffffffffffffffffffffffffffffffffffffffff1673ffffffffffffffffffffffffffffffffffffffff16815260200190815260200160002060009054906101000a900473ffffffffffffffffffffffffffffffffffffffff1673ffffffffffffffffffffffffffffffffffffffff161415610e0157600080fd5b600460008473ffffffffffffffffffffffffffffffffffffffff1673ffffffffffffffffffffffffffffffffffffffff16815260200190815260200160002060009054906101000a900473ffffffffffffffffffffffffffffffffffffffff1673ffffffffffffffffffffffffffffffffffffffff166387caea78836040518263ffffffff1660e01b81526004018082151515158152602001915050600060405180830381600087803b158015610eb757600080fd5b505af1158015610ecb573d6000803e3d6000fd5b50505050505050565b6005819080600181540180825580915050906001820390600052602060002001600090919290919091509080519060200190610f11929190611103565b505060066000815480929190600101919050555050565b81600073ffffffffffffffffffffffffffffffffffffffff16600460008373ffffffffffffffffffffffffffffffffffffffff1673ffffffffffffffffffffffffffffffffffffffff16815260200190815260200160002060009054906101000a900473ffffffffffffffffffffffffffffffffffffffff1673ffffffffffffffffffffffffffffffffffffffff161415610fc257600080fd5b600460008473ffffffffffffffffffffffffffffffffffffffff1673ffffffffffffffffffffffffffffffffffffffff16815260200190815260200160002060009054906101000a900473ffffffffffffffffffffffffffffffffffffffff1673ffffffffffffffffffffffffffffffffffffffff166313292a02836040518263ffffffff1660e01b81526004018080602001828103825283818151815260200191508051906020019080838360005b8381101561108d578082015181840152602081019050611072565b50505050905090810190601f1680156110ba5780820380516001836020036101000a031916815260200191505b5092505050600060405180830381600087803b1580156110d957600080fd5b505af11580156110ed573d6000803e3d6000fd5b50505050505050565b610e46806111a983390190565b828054600181600116156101000203166002900490600052602060002090601f016020900481019282601f1061114457805160ff1916838001178555611172565b82800160010185558215611172579182015b82811115611171578251825591602001919060010190611156565b5b50905061117f9190611183565b5090565b6111a591905b808211156111a1576000816000905550600101611189565b5090565b9056fe60806040526000600260146101000a81548163ffffffff021916908363ffffffff1602179055506000600b5534801561003757600080fd5b50604051610e46380380610e468339810180604052604081101561005a57600080fd5b81019080805164010000000081111561007257600080fd5b8281019050602081018481111561008857600080fd5b81518560018202830111640100000000821117156100a557600080fd5b50509291906020018051906020019092919050505081600090805190602001906100d0929190610120565b508060018190555033600260006101000a81548173ffffffffffffffffffffffffffffffffffffffff021916908373ffffffffffffffffffffffffffffffffffffffff16021790555050506101c5565b828054600181600116156101000203166002900490600052602060002090601f016020900481019282601f1061016157805160ff191683800117855561018f565b8280016001018555821561018f579182015b8281111561018e578251825591602001919060010190610173565b5b50905061019c91906101a0565b5090565b6101c291905b808211156101be5760008160009055506001016101a6565b5090565b90565b610c72806101d46000396000f3fe6080604052600436106100915760003560e01c8063517cba9c11610059578063517cba9c146102b557806387caea78146102e0578063c53f29d81461031d578063cd7193bd146103e5578063d0e30db01461041057610091565b80630e82e52a1461009657806312514bba146100ad57806313292a02146100e85780632607aafa146101b057806338eada1c14610264575b600080fd5b3480156100a257600080fd5b506100ab61041a565b005b3480156100b957600080fd5b506100e6600480360360208110156100d057600080fd5b810190808035906020019092919050505061047e565b005b3480156100f457600080fd5b506101ae6004803603602081101561010b57600080fd5b810190808035906020019064010000000081111561012857600080fd5b82018360208201111561013a57600080fd5b8035906020019184600183028401116401000000008311171561015c57600080fd5b91908080601f016020809104026020016040519081016040528093929190818152602001838380828437600081840152601f19601f820116905080830192505050505050509192919290505050610551565b005b3480156101bc57600080fd5b506101e9600480360360208110156101d357600080fd5b8101908080359060200190929190505050610632565b6040518080602001828103825283818151815260200191508051906020019080838360005b8381101561022957808201518184015260208101905061020e565b50505050905090810190601f1680156102565780820380516001836020036101000a031916815260200191505b509250505060405180910390f35b34801561027057600080fd5b506102b36004803603602081101561028757600080fd5b81019080803573ffffffffffffffffffffffffffffffffffffffff1690602001909291905050506106eb565b005b3480156102c157600080fd5b506102ca61081a565b6040518082815260200191505060405180910390f35b3480156102ec57600080fd5b5061031b6004803603602081101561030357600080fd5b81019080803515159060200190929190505050610824565b005b34801561032957600080fd5b506103e36004803603602081101561034057600080fd5b810190808035906020019064010000000081111561035d57600080fd5b82018360208201111561036f57600080fd5b8035906020019184600183028401116401000000008311171561039157600080fd5b91908080601f016020809104026020016040519081016040528093929190818152602001838380828437600081840152601f19601f820116905080830192505050505050509192919290505050610aa9565b005b3480156103f157600080fd5b506103fa610afd565b6040518082815260200191505060405180910390f35b610418610b1c565b005b600360040154421115610446576000600360010160006101000a81548160ff0219169083151502179055505b6002600360020154026003806003015402111561047c576001600360050160006101000a81548160ff0219169083151502179055505b565b600360050160009054906101000a900460ff1661049a57600080fd5b600260009054906101000a900473ffffffffffffffffffffffffffffffffffffffff1673ffffffffffffffffffffffffffffffffffffffff163373ffffffffffffffffffffffffffffffffffffffff16146104f457600080fd5b806104fd610afd565b1161050757600080fd5b3373ffffffffffffffffffffffffffffffffffffffff166108fc829081150290604051600060405180830381858888f1935050505015801561054d573d6000803e3d6000fd5b5050565b600073ffffffffffffffffffffffffffffffffffffffff16600960003373ffffffffffffffffffffffffffffffffffffffff1673ffffffffffffffffffffffffffffffffffffffff16815260200190815260200160002060000160009054906101000a900473ffffffffffffffffffffffffffffffffffffffff1673ffffffffffffffffffffffffffffffffffffffff1614156105ed57600080fd5b8060036000019080519060200190610606929190610b78565b506001600360010160006101000a81548160ff0219169083151502179055504260036004018190555050565b6060600a828154811061064157fe5b906000526020600020018054600181600116156101000203166002900480601f0160208091040260200160405190810160405280929190818152602001828054600181600116156101000203166002900480156106df5780601f106106b4576101008083540402835291602001916106df565b820191906000526020600020905b8154815290600101906020018083116106c257829003601f168201915b50505050509050919050565b600260149054906101000a900463ffffffff1663ffffffff166001541161071157600080fd5b6002601481819054906101000a900463ffffffff168092919060010191906101000a81548163ffffffff021916908363ffffffff16021790555050610754610bf8565b81816000019073ffffffffffffffffffffffffffffffffffffffff16908173ffffffffffffffffffffffffffffffffffffffff168152505080600960008473ffffffffffffffffffffffffffffffffffffffff1673ffffffffffffffffffffffffffffffffffffffff16815260200190815260200160002060008201518160000160006101000a81548173ffffffffffffffffffffffffffffffffffffffff021916908373ffffffffffffffffffffffffffffffffffffffff1602179055509050505050565b6000600b54905090565b600073ffffffffffffffffffffffffffffffffffffffff16600960003373ffffffffffffffffffffffffffffffffffffffff1673ffffffffffffffffffffffffffffffffffffffff16815260200190815260200160002060000160009054906101000a900473ffffffffffffffffffffffffffffffffffffffff1673ffffffffffffffffffffffffffffffffffffffff1614156108c057600080fd5b600960003373ffffffffffffffffffffffffffffffffffffffff1673ffffffffffffffffffffffffffffffffffffffff168152602001908152602001600020600101600360000160405180828054600181600116156101000203166002900480156109625780601f10610940576101008083540402835291820191610962565b820191906000526020600020905b81548152906001019060200180831161094e575b5050915050908152602001604051809103902060009054906101000a900460ff1615801561099f5750600360010160009054906101000a900460ff165b6109a857600080fd5b6003600201600081548092919060010191905055506001600960003373ffffffffffffffffffffffffffffffffffffffff1673ffffffffffffffffffffffffffffffffffffffff16815260200190815260200160002060010160036000016040518082805460018160011615610100020316600290048015610a615780601f10610a3f576101008083540402835291820191610a61565b820191906000526020600020905b815481529060010190602001808311610a4d575b5050915050908152602001604051809103902060006101000a81548160ff0219169083151502179055508015610aa65760038001600081548092919060010191905055505b50565b600a819080600181540180825580915050906001820390600052602060002001600090919290919091509080519060200190610ae6929190610b78565b5050600b6000815480929190600101919050555050565b60003073ffffffffffffffffffffffffffffffffffffffff1631905090565b600260009054906101000a900473ffffffffffffffffffffffffffffffffffffffff1673ffffffffffffffffffffffffffffffffffffffff163373ffffffffffffffffffffffffffffffffffffffff1614610b7657600080fd5b565b828054600181600116156101000203166002900490600052602060002090601f016020900481019282601f10610bb957805160ff1916838001178555610be7565b82800160010185558215610be7579182015b82811115610be6578251825591602001919060010190610bcb565b5b509050610bf49190610c21565b5090565b6040518060200160405280600073ffffffffffffffffffffffffffffffffffffffff1681525090565b610c4391905b80821115610c3f576000816000905550600101610c27565b5090565b9056fea165627a7a723058204e587076054500aa8b3834f00f75466fb3e3808e790d13f01fdea646b0a6d93d0029a165627a7a72305820847269b823eb2ef53cb53c2cfc28f5843e566265f48d980cdf06964a23da7c030029",
  "source": "pragma solidity ^0.5.0;\r\n\r\nimport './newUniv.sol';\r\n\r\ncontract UnivLedger{\r\n\r\n    address payable owner;\r\n    uint entryFee = 10 ether;\r\n    uint representativeNum; // (학생회 + 총학 대표들) 수\r\n\r\n    address[] private studentAddresses;\r\n\r\n    // 자격 가진 사람 아니면 못하는 modifier\r\n    mapping(address => newUniv) UnivAddToInfo;\r\n\r\n    modifier onlyRegisterUniv(address _univAdd){\r\n        require(address(UnivAddToInfo[_univAdd])!=address(0));\r\n        _;\r\n    }\r\n\r\n    // 웹에서 보내는 정보를 토대로 스마트 컨트랙트를 배포할 것이기 때문에 인자를 받아와야 한다\r\n    constructor() public {\r\n        owner=msg.sender;\r\n    }\r\n\r\n    function registerUniv(string memory _UnivName, uint _representativeNum) public payable {\r\n        require(msg.value>=entryFee);\r\n        newUniv univ = new newUniv(_UnivName,_representativeNum);\r\n        UnivAddToInfo[address(univ)]=univ;\r\n    }\r\n\r\n    //학생회 + 단과대 대표들 계좌 주소 받는 함수!\r\n    function child_addAddress(address _univAdd ,address _studentAddress) public onlyRegisterUniv(_univAdd){\r\n        UnivAddToInfo[_univAdd].addAddress(_studentAddress);\r\n    }\r\n\r\n    // function getUnivBalance() public view returns (uint) {\r\n    //     return address(this).balance;\r\n    // }\r\n\r\n    function child_createVote(address _univAdd,string memory _votingAgenda) public onlyRegisterUniv(_univAdd){\r\n        UnivAddToInfo[_univAdd].createVote(_votingAgenda);\r\n    }\r\n\r\n    function child_doVote(address _univAdd,bool _agree) public onlyRegisterUniv(_univAdd){\r\n        UnivAddToInfo[_univAdd].doVote(_agree);\r\n    }\r\n\r\n    function child_updateVote(address _univAdd) public onlyRegisterUniv(_univAdd){\r\n        UnivAddToInfo[_univAdd].updateVote();\r\n    }\r\n\r\n    function child_deposit(address _univAdd) public onlyRegisterUniv(_univAdd){\r\n        UnivAddToInfo[_univAdd].deposit();\r\n    }\r\n\r\n    function child_transfer(address _univAdd,uint _amount) public onlyRegisterUniv(_univAdd){\r\n        UnivAddToInfo[_univAdd].transfer(_amount);\r\n    }\r\n      string[] ipfsImages;\r\n    uint ipfsCnt=0;\r\n    \r\n    function registerImage(string memory _hash) public { \r\n        ipfsImages.push(_hash);\r\n        ipfsCnt++;\r\n    }\r\n\r\n    function getImage(uint _i) public view returns(string memory) { \r\n        return ipfsImages[_i];\r\n    }\r\n\r\n    function getIpfsCnt() public view returns(uint) { \r\n        return ipfsCnt;\r\n    }\r\n}",
  "sourcePath": "C:/Users/alsla/Documents/카카오톡 받은 파일/ipfs/contracts/UnivLedger.sol",
  "compiler": {
    "name": "solc",
    "version": "0.5.8+commit.23d335f2.Emscripten.clang"
  },
  "schemaVersion": "3.0.11",
  "updatedAt": "2019-08-01T15:53:03.245Z",
  "devdoc": {
    "methods": {}
  },
  "userdoc": {
    "methods": {}
  }
}