{
  "contractName": "myContract",
  "abi": [
    {
      "payable": true,
      "stateMutability": "payable",
      "type": "fallback"
    },
    {
      "anonymous": false,
      "inputs": [
        {
          "indexed": false,
          "name": "time",
          "type": "uint256"
        },
        {
          "indexed": true,
          "name": "blockNumber",
          "type": "uint256"
        },
        {
          "indexed": true,
          "name": "senderAddress",
          "type": "address"
        },
        {
          "indexed": false,
          "name": "valueWei",
          "type": "uint256"
        }
      ],
      "name": "DepositEvent",
      "type": "event"
    },
    {
      "constant": false,
      "inputs": [],
      "name": "withdraw",
      "outputs": [],
      "payable": false,
      "stateMutability": "nonpayable",
      "type": "function"
    },
    {
      "constant": false,
      "inputs": [],
      "name": "deposit",
      "outputs": [],
      "payable": true,
      "stateMutability": "payable",
      "type": "function"
    }
  ],
  "bytecode": "0x6080604052336000806101000a81548173ffffffffffffffffffffffffffffffffffffffff021916908373ffffffffffffffffffffffffffffffffffffffff16021790555073e81feb264d66af5152ed97e87fa58ca6b2b73215600160006101000a81548173ffffffffffffffffffffffffffffffffffffffff021916908373ffffffffffffffffffffffffffffffffffffffff1602179055503480156100a557600080fd5b506104d6806100b56000396000f3fe60806040526004361061004c576000357c0100000000000000000000000000000000000000000000000000000000900463ffffffff1680633ccfd60b1461004e578063d0e30db014610065575b005b34801561005a57600080fd5b5061006361006f565b005b61006d610404565b005b60003073ffffffffffffffffffffffffffffffffffffffff16311115156100fe576040517f08c379a00000000000000000000000000000000000000000000000000000000081526004018080602001828103825260138152602001807f4e6f2066756e647320617661696c61626c652e0000000000000000000000000081525060200191505060405180910390fd5b6000809054906101000a900473ffffffffffffffffffffffffffffffffffffffff1673ffffffffffffffffffffffffffffffffffffffff163373ffffffffffffffffffffffffffffffffffffffff161415610248576000809054906101000a900473ffffffffffffffffffffffffffffffffffffffff1673ffffffffffffffffffffffffffffffffffffffff166108fc670de0b6b3a76400009081150290604051600060405180830381858888f193505050501580156101c2573d6000803e3d6000fd5b50600160009054906101000a900473ffffffffffffffffffffffffffffffffffffffff1673ffffffffffffffffffffffffffffffffffffffff166108fc3073ffffffffffffffffffffffffffffffffffffffff16319081150290604051600060405180830381858888f19350505050158015610242573d6000803e3d6000fd5b50610402565b600160009054906101000a900473ffffffffffffffffffffffffffffffffffffffff1673ffffffffffffffffffffffffffffffffffffffff163373ffffffffffffffffffffffffffffffffffffffff161415610393576000809054906101000a900473ffffffffffffffffffffffffffffffffffffffff1673ffffffffffffffffffffffffffffffffffffffff166108fc678ac7230489e800009081150290604051600060405180830381858888f1935050505015801561030d573d6000803e3d6000fd5b50600160009054906101000a900473ffffffffffffffffffffffffffffffffffffffff1673ffffffffffffffffffffffffffffffffffffffff166108fc3073ffffffffffffffffffffffffffffffffffffffff16319081150290604051600060405180830381858888f1935050505015801561038d573d6000803e3d6000fd5b50610401565b6040517f08c379a000000000000000000000000000000000000000000000000000000000815260040180806020018281038252601e8152602001807f4e6f7420616c6c6f77656420746f2077697468647261772066756e64732e000081525060200191505060405180910390fd5b5b565b34600260003373ffffffffffffffffffffffffffffffffffffffff1673ffffffffffffffffffffffffffffffffffffffff168152602001908152602001600020600082825401925050819055503373ffffffffffffffffffffffffffffffffffffffff16437fcf8c3b43da283a54cf0b3613e887e230a2615ce39ab289ad59b249afec6366574234604051808381526020018281526020019250505060405180910390a356fea165627a7a7230582045f23bc9a4ff434d5d76dece2e60b5e930a32eb1b761305b80912806e9d704e90029",
  "source": "pragma solidity 0.5.0;\n\n\ncontract myContract {\n    address payable owner = msg.sender;\n    address payable charity = 0xE81fEb264D66aF5152ed97E87Fa58cA6B2B73215; \n    \n    mapping(address => uint) balances;\n    \n    event DepositEvent( \n        uint time,\n        uint indexed blockNumber,\n        address indexed senderAddress,\n        uint valueWei\n    );\n\n    function withdraw() public {\n        require(address(this).balance > 0, 'No funds available.');\n        if(msg.sender == owner) {\n            owner.transfer(1 ether); charity.transfer(address(this).balance);\n        } else if(msg.sender == charity) { \n            owner.transfer(10 ether); charity.transfer(address(this).balance);\n        } else {\n            revert('Not allowed to withdraw funds.');\n        } \n    }\n    \n    function deposit() public payable { \n        balances[msg.sender] += msg.value; \n        emit DepositEvent(\n            now,\n            block.number,\n            msg.sender,\n            msg.value\n        ); \n    }\n\n    function() external payable {\n\n    }\n}",
  "sourcePath": "/Users/kmw/workspaces/tmp/contracts/myContract.sol",
  "compiler": {
    "name": "solc",
    "version": "0.5.0+commit.1d4f565a.Emscripten.clang"
  },
  "schemaVersion": "3.0.11",
  "updatedAt": "2019-07-31T13:02:54.345Z",
  "devdoc": {
    "methods": {}
  },
  "userdoc": {
    "methods": {}
  }
}